:10000000830100308A00042883010A128A11C82F54
:100F320083012108200403190800E830A2000330CD
:100F4200A300A2080319A303A20323082204031D7A
:100F5200A22FA0080319A103A0032108200403194A
:100F620008009E2F83160313071106160615851017
:100F720083128514033092000F3097009101CD3017
:100F82008316920069308312950012150800B32768
:100F9200831203130619D92F0330A000A101992748
:100FA2000619D92F06301502031CD92FFB309507DD
:100FB200061AC92F0330A000A1019927061AC92FCA
:100FC20083161208F200F301FB30F2070318F30A4A
:100FD200FF30F30783121508F000F1017108803A1F
:100FE200F4007308803A7402031DF92F720870022C
:0E0FF2000318C92F0530831203139507C92F6A
:00000001FF
