:10000000830100308A006428F20003088301AC00F9
:100010000408AD000A08AE008A017008AF0071083C
:10002000B0008B1C2C28831203138801A601A701A2
:1000300088099630A800A9010A128A1198270A1285
:100040008A11A60A0319A70A003027020A300319E9
:1000500026020318532818280B1C53288312031355
:10006000861A5328880185108516A601A70100303D
:100070008A002608053C682088002C30A800013042
:10008000A9000A128A1198270A128A11A60A0319CE
:10009000A70A00302702063003192602031C37285E
:1000A0008801851485128B100B10031383122F08FF
:1000B000F0003008F1002D0884002E088A002C087A
:1000C0008300F20E720E090083010A128A11CC2FEE
:1000D00082073F3406345B344F3466346D347D34EC
:0600E00007347F346F3489
:100F300083012908280403190800AA01AB01AA0AA1
:100F40000319AB0A00302B022D3003192A02031CAF
:100F50009F2FA8080319A903A80329082804031927
:100F600008009D2F83012308220403190800A4010F
:100F7000A501A40A0319A50A003025022D30031982
:100F80002402031CB92FA2080319A303A2032308F8
:100F9000220403190800B72F831603131F08F03922
:100FA00007389F000608DE39213886008801DD30C9
:100FB000850501178B150B100B168B108B178312E1
:100FC00085148512A001A1010130F0002008F10074
:100FD000F10AEC2F0310F00DF10BEA2F70088800D6
:100FE000E830A2000330A300B227A00A0319A10A27
:100FF000003021020830031920020318E22FE42FE9
:00000001FF
