:10000000830100308A005B28F20003088301AC0002
:100010000408AD000A08AE008A017008AF0071083C
:10002000B0000B1C4C28831203138801A601A70102
:1000300088099630A800A9010A128A119B270A1282
:100040008A11A60A0319A70A003027020A300319E9
:100050002602031C182885108516A601A70100306A
:100060008A002608053C5F2088002C30A80001305B
:10007000A9000A128A119B270A128A11A60A0319DB
:10008000A70A00302702063003192602031C2F2876
:100090008801851485120B10031383122F08F000BA
:1000A0003008F1002D0884002E088A002C088300F7
:1000B000F20E720E090083010A128A11CF2F8207F5
:1000C0003F3406345B344F3466346D347D3407344A
:0400D0007F346F34D6
:100F360083012908280403190800AA01AB01AA0A9B
:100F46000319AB0A00302B022D3003192A02031CA9
:100F5600A22FA8080319A903A8032908280403191E
:100F66000800A02F83012308220403190800A40106
:100F7600A501A40A0319A50A003025022D3003197C
:100F86002402031CBC2FA2080319A303A2032308EF
:100F9600220403190800BA2F831603131F08F03919
:100FA60007389F000608CF39303886008801DD30C3
:100FB60085058B150B108B17831285148512A001DE
:100FC600A1010130F0002008F100F10AEC2F031016
:100FD600F00DF10BEA2F70088800E830A20003300C
:100FE600A300B527A00A0319A10A00302102083080
:0A0FF600031920020318E22FE42F74
:00000001FF
