:10000000830100308A005C28F20003088301AC0001
:100010000408AD000A08AE008A017008B00071083B
:10002000AF000B1C3328831203138516851005308F
:10003000A600A7012608A8002708A9000A128A110D
:100040008A272C30A8000130A9000A128A119E27A5
:100050000A128A11A6080319A703A603A71F1A28C4
:10006000851485120B108B1C4D28831203138512E7
:1000700085148801A50188092C30A8000130A90049
:100080000A128A119E270A128A11A50A0A3025022D
:10009000031C3B28851485128B1003138312300830
:1000A000F0002F08F1002D0884002E088A002C088B
:1000B0008300F20E720E090083010A128A11D22FF8
:1000C00082073F3406345B344F3466346D34003479
:0600D0000034003400348E
:100F140083012908803AF0008030700206300319FA
:100F2400280203180800851600308A00280860206B
:100F34000A128A1188000800830129082804031969
:100F44000800AA01AB01AA0A0319AB0A00302B025C
:100F54002D3003192A02031CA52FA8080319A9037D
:100F6400A8032908280403190800A32F83012208D1
:100F7400210403190800A301A401A30A0319A40A64
:100F8400003024022D3003192302031CBF2FA108B3
:100F94000319A203A1032208210403190800BD2F89
:100FA400831603131F08F03907389F002130860089
:100FB40088018312850183168510851201138B1510
:100FC4000B168B108B1783128514A001A00101301E
:100FD400F0002008F100F10AF12F0310F00DF10BDD
:100FE400EF2F70088800B830A1000B30A200B8279A
:0C0FF400A00A083020020318E72FE92FA4
:00000001FF
