:060000000A128A11122809
:10000800FE00030EF4000408F5000A08F600831247
:1000180003137F08F7000A128A1115280A128A1199
:1000280060298B1C1828192844288801F801F9012F
:10003800003079020A3003197802031C2428252885
:100048002728892889288312031388099630F00005
:100058000030F1000A128A111D210A128A1101309A
:10006800F8070318F90A0030F907003079020A3056
:1000780003197802031C412842282728892889283F
:100088000B1C472848288928861A4B284C28892879
:10009800880185108516F801F901003079020630CB
:1000A80003197802031C59285A285C2882288228B8
:1000B8007803FF3A053E013E84000A128A11502156
:1000C8000A128A118312031388002C30F0000130C1
:1000D800F1000A128A111D210A128A110130F8074B
:1000E8000318F90A0030F9070030790206300319BD
:1000F8007802031C802881285C2882288312031335
:10010800880185148512892889288B100B10770897
:1001180083120313FF0076088A0075088400740EA2
:100128008300FE0E7E0E0900831603131F08F039A4
:1001380007389F000608DE3921388600880105083F
:10014800DD39850001178B150B100B168B108B17DB
:100158008312031385148512A501A6010030260217
:10016800083003192502031CBA28BB28BD28B0286B
:10017800B0280130A400250AC3280310A40DFF3EAF
:10018800031DC12824088800E830A0000330A1001E
:100198000A128A11E8200A128A1101308312031305
:1001A800A5070318A60A0030A60700302602083063
:1001B80003192502031CE128E228BD28B028B0282D
:1001C800B0280A128A111228831203132108200466
:1001D800031DEF28F028F2281C291C29A201A301DD
:1001E800003023022D3003192202031CFC28FD28AD
:1001F800FF280F290F290130A2070318A30A00308E
:10020800A307003023022D3003192202031C0D29F5
:100218000E29FF280F290130A0020030031CA1037A
:10022800A10221082004031D1A291B29F2281C29D0
:10023800080071087004031D2229232925294F2944
:100248004F29F201F301003073022D3003197202B5
:10025800031C2F2930293229422942290130F2076B
:100268000318F30A0030F307003073022D30031926
:100278007202031C40294129322942290130F00227
:100288000030031CF103F10271087004031D4D29AD
:100298004E2925294F29080001308A000408840ABC
:1002A800820700343F3406345B344F3466346D348F
:1002B8007D3407347F346F3483010A128A119828F9
:00000001FF
