:060000000A128A11B32E62
:100D6600FC01FD01A001A101A201A30183010A1258
:100D76008A11432F83160713871724309800903063
:100D8600831298001930831699008B0105148E3052
:100D96009F00413083129F000C1308007108F30076
:100DA6007008F2007308803AFF0080307F02031D4E
:100DB600DE2E01307202031C0800F401F501F40A6C
:100DC6000319F50A7508803AFF0080307F02031D7B
:100DD600EE2E64307402031CE22EFF30F207031C71
:100DE600F303D52E780877040319142FFB01FB0AA9
:100DF600F81B012F0310F70DF80DFA2E78087A026A
:100E0600031D072F77087902031C102F7708F902B4
:100E16007808031CFA03FA020310F80CF70CFB0B14
:100E2600012F7A08F8007908F7000800F401F501A7
:100E36007108700403193E2FF601F60AF11B272FDD
:100E46000310F00DF10D202F0310F40DF50D7108B0
:100E56007302031D302F70087202031C3A2F7008AC
:100E6600F2027108031CF303F30274140310F10C6D
:100E7600F00CF60B272F7508F1007408F000080037
:100E86000A128A11BD260A128A11831203131F152C
:100E96000C1F4B2F1E08A000A10183161E088312EB
:100EA600A200A3012108FD002008FC00FD00FC01B2
:100EB6002208FC070318FD0A2308FD07E830F000A6
:100EC6000330F1007D08F3007C08F2000A128A1153
:100ED60019270A128A117008303E99008316981C49
:100EE600712F0530F000F1010A128A11D1260A127B
:100EF6008A110A30F700F8016430F000F1017D082C
:100F0600F3007C08F2000A128A1119270A128A11C4
:100F16007108FA007008F9000A128A11F5260A12F9
:100F26008A117708303E8312031399008316981CA2
:100F3600992F0530F000F1010A128A11D1260A1202
:100F46008A110A30F700F801F000F1017D08F3007C
:100F56007C08F2000A128A1119270A128A117108EE
:100F6600FA007008F9000A128A11F5260A128A1187
:100F76007708303E8312031399008316981CC02FFE
:100F86000530F000F1010A128A11D1260A128A11DF
:100F96000A30F700F8017D08FA007C08F9000A1209
:100FA6008A11F5260A128A117708303E8312031336
:100FB60099008316981CDC2F0530F000F1010A1207
:100FC6008A11D1260A128A110A3083120313990054
:100FD6008316981CEB2F0530F000F1010A128A11D6
:100FE600D1260A128A119030F0000130F1000A125F
:0A0FF6008A11D1260A128A11482F31
:00000001FF
