:10000000830100308A00042883010A128A11E52F37
:1000100082073F3406345B344F3466346D347D34AC
:0600200007347F346F3449
:100E7C0083012308A7002408A800803AF0008030E2
:100E8C007002013003192702031C0800A501A601FA
:100E9C00A50A0319A60A2608803AF00080307002D1
:100EAC00643003192502031C4E2FA7080319A8034D
:100EBC00A7032808803AF000803070020130031933
:100ECC002702031C08004C2F83012208803AF000F3
:100EDC00803070020A300319210203187E2F85140A
:100EEC0000308A00210808200A128A1188000800A4
:100EFC002208803AF000803070020A300319210277
:100F0C00031C08002208803AF00080307002143074
:100F1C000319210203180800051500308A0001305E
:100F2C00082088006430A300A4010A128A113E270D
:100F3C00851400308A002108F63E082088006430B1
:100F4C00A300A4010A128A113E2F830185140608FE
:100F5C003539353A0319BA2F061C0134061D0234F3
:100F6C00061E0334861E0434051506083539353A39
:100F7C000319C82F061C0534061D0634061E07343B
:100F8C00861E0834851506083539353A0319D62FCF
:100F9C00061C0934061D0A34061E0B34861E0C343E
:100FAC00851606083539353A03190034061C0D34FC
:100FBC00061D0E34061E0F34861E103400348312A8
:100FCC000313A001831688018501FF30860083126C
:100FDC008801AB27A000A0080319FA2F2008A10054
:100FEC00A2016A270A128A11A001A301A30AA40173
:040FFC003E27EE2F6F
:00000001FF
